{
  "contractName": "Betting",
  "abi": [
    {
      "constant": true,
      "inputs": [
        {
          "name": "",
          "type": "address"
        }
      ],
      "name": "playerInfo",
      "outputs": [
        {
          "name": "amountBet",
          "type": "uint256"
        },
        {
          "name": "teamSelected",
          "type": "string"
        }
      ],
      "payable": false,
      "stateMutability": "view",
      "type": "function",
      "signature": "0x4b114691"
    },
    {
      "constant": true,
      "inputs": [],
      "name": "totalBetsTwo",
      "outputs": [
        {
          "name": "",
          "type": "uint256"
        }
      ],
      "payable": false,
      "stateMutability": "view",
      "type": "function",
      "signature": "0x5bf6b19f"
    },
    {
      "constant": true,
      "inputs": [],
      "name": "totalBetsOne",
      "outputs": [
        {
          "name": "",
          "type": "uint256"
        }
      ],
      "payable": false,
      "stateMutability": "view",
      "type": "function",
      "signature": "0x8afadeb5"
    },
    {
      "constant": true,
      "inputs": [],
      "name": "minimumBet",
      "outputs": [
        {
          "name": "",
          "type": "uint256"
        }
      ],
      "payable": false,
      "stateMutability": "view",
      "type": "function",
      "signature": "0xc38a8afd"
    },
    {
      "constant": true,
      "inputs": [],
      "name": "oraclizeID",
      "outputs": [
        {
          "name": "",
          "type": "bytes32"
        }
      ],
      "payable": false,
      "stateMutability": "view",
      "type": "function",
      "signature": "0xd98645c5"
    },
    {
      "constant": true,
      "inputs": [
        {
          "name": "",
          "type": "uint256"
        }
      ],
      "name": "players",
      "outputs": [
        {
          "name": "",
          "type": "address"
        }
      ],
      "payable": false,
      "stateMutability": "view",
      "type": "function",
      "signature": "0xf71d96cb"
    },
    {
      "inputs": [],
      "payable": false,
      "stateMutability": "nonpayable",
      "type": "constructor",
      "signature": "constructor"
    },
    {
      "anonymous": false,
      "inputs": [
        {
          "indexed": false,
          "name": "user",
          "type": "address"
        },
        {
          "indexed": false,
          "name": "amount",
          "type": "uint256"
        }
      ],
      "name": "betAccpeted",
      "type": "event",
      "signature": "0x197c81194b42201e05f4b2f587787f9156fcc85a50cc19a2fd8ae9cf9fb1ddfd"
    },
    {
      "anonymous": false,
      "inputs": [
        {
          "indexed": false,
          "name": "winner",
          "type": "address"
        },
        {
          "indexed": false,
          "name": "_pool",
          "type": "uint256"
        }
      ],
      "name": "Winner",
      "type": "event",
      "signature": "0x9c2270628a9b29d30ae96b6c4c14ed646ee134febdce38a5b77f2bde9cea2e20"
    },
    {
      "anonymous": false,
      "inputs": [
        {
          "indexed": false,
          "name": "better",
          "type": "address"
        },
        {
          "indexed": false,
          "name": "team",
          "type": "string"
        }
      ],
      "name": "rollAccpeted",
      "type": "event",
      "signature": "0xe1f0796e4e175cbbbdd40bfcb09b35c11c4914b118238869ff6a2e05877caf0e"
    },
    {
      "constant": false,
      "inputs": [],
      "name": "query",
      "outputs": [],
      "payable": true,
      "stateMutability": "payable",
      "type": "function",
      "signature": "0x2c46b205"
    },
    {
      "constant": false,
      "inputs": [
        {
          "name": "_oraclizeID",
          "type": "bytes32"
        },
        {
          "name": "result",
          "type": "string"
        }
      ],
      "name": "__callback",
      "outputs": [],
      "payable": false,
      "stateMutability": "nonpayable",
      "type": "function",
      "signature": "0x27dc297e"
    },
    {
      "constant": false,
      "inputs": [
        {
          "name": "_myid",
          "type": "bytes32"
        },
        {
          "name": "_result",
          "type": "string"
        },
        {
          "name": "_proof",
          "type": "bytes"
        }
      ],
      "name": "__callback",
      "outputs": [],
      "payable": false,
      "stateMutability": "nonpayable",
      "type": "function",
      "signature": "0x38bbfa50"
    },
    {
      "constant": true,
      "inputs": [],
      "name": "getWinnerResult",
      "outputs": [
        {
          "name": "",
          "type": "string"
        }
      ],
      "payable": false,
      "stateMutability": "view",
      "type": "function",
      "signature": "0xc4018ef0"
    },
    {
      "constant": true,
      "inputs": [
        {
          "name": "player",
          "type": "address"
        }
      ],
      "name": "checkPlayerExists",
      "outputs": [
        {
          "name": "",
          "type": "bool"
        }
      ],
      "payable": false,
      "stateMutability": "view",
      "type": "function",
      "signature": "0x4081d916"
    },
    {
      "constant": false,
      "inputs": [
        {
          "name": "_amountbet",
          "type": "uint256"
        },
        {
          "name": "_teamSelected",
          "type": "string"
        }
      ],
      "name": "bet",
      "outputs": [],
      "payable": true,
      "stateMutability": "payable",
      "type": "function",
      "signature": "0x915eb32f"
    },
    {
      "constant": true,
      "inputs": [
        {
          "name": "indx",
          "type": "uint256"
        }
      ],
      "name": "getPlayer",
      "outputs": [
        {
          "name": "",
          "type": "address"
        }
      ],
      "payable": false,
      "stateMutability": "view",
      "type": "function",
      "signature": "0xe55ae4e8"
    },
    {
      "constant": false,
      "inputs": [
        {
          "name": "_winner_result",
          "type": "string"
        }
      ],
      "name": "distributePrizes",
      "outputs": [],
      "payable": false,
      "stateMutability": "nonpayable",
      "type": "function",
      "signature": "0x8423adac"
    },
    {
      "constant": true,
      "inputs": [],
      "name": "AmountOne",
      "outputs": [
        {
          "name": "",
          "type": "uint256"
        }
      ],
      "payable": false,
      "stateMutability": "view",
      "type": "function",
      "signature": "0x4996d51d"
    },
    {
      "constant": true,
      "inputs": [],
      "name": "AmountTwo",
      "outputs": [
        {
          "name": "",
          "type": "uint256"
        }
      ],
      "payable": false,
      "stateMutability": "view",
      "type": "function",
      "signature": "0x65733592"
    }
  ],
  "bytecode": "0x608060405234801561001057600080fd5b5033600a60006101000a81548173ffffffffffffffffffffffffffffffffffffffff021916908373ffffffffffffffffffffffffffffffffffffffff160217905550655af3107a40006005819055506125c28061006e6000396000f3fe6080604052600436106100e6576000357c0100000000000000000000000000000000000000000000000000000000900463ffffffff16806327dc297e146100eb5780632c46b205146101bd57806338bbfa50146101c75780634081d916146103305780634996d51d146103995780634b114691146103c45780635bf6b19f1461049557806365733592146104c05780638423adac146104eb5780638afadeb5146105b3578063915eb32f146105de578063c38a8afd146106a3578063c4018ef0146106ce578063d98645c51461075e578063e55ae4e814610789578063f71d96cb14610804575b600080fd5b3480156100f757600080fd5b506101bb6004803603604081101561010e57600080fd5b81019080803590602001909291908035906020019064010000000081111561013557600080fd5b82018360208201111561014757600080fd5b8035906020019184600183028401116401000000008311171561016957600080fd5b91908080601f016020809104026020016040519081016040528093929190818152602001838380828437600081840152601f19601f82011690508083019250505050505050919291929050505061087f565b005b6101c56108db565b005b3480156101d357600080fd5b5061032e600480360360608110156101ea57600080fd5b81019080803590602001909291908035906020019064010000000081111561021157600080fd5b82018360208201111561022357600080fd5b8035906020019184600183028401116401000000008311171561024557600080fd5b91908080601f016020809104026020016040519081016040528093929190818152602001838380828437600081840152601f19601f820116905080830192505050505050509192919290803590602001906401000000008111156102a857600080fd5b8201836020820111156102ba57600080fd5b803590602001918460018302840111640100000000831117156102dc57600080fd5b91908080601f016020809104026020016040519081016040528093929190818152602001838380828437600081840152601f19601f8201169050808301925050505050505091929192905050506109a4565b005b34801561033c57600080fd5b5061037f6004803603602081101561035357600080fd5b81019080803573ffffffffffffffffffffffffffffffffffffffff1690602001909291905050506109a9565b604051808215151515815260200191505060405180910390f35b3480156103a557600080fd5b506103ae610a4d565b6040518082815260200191505060405180910390f35b3480156103d057600080fd5b50610413600480360360208110156103e757600080fd5b81019080803573ffffffffffffffffffffffffffffffffffffffff169060200190929190505050610a57565b6040518083815260200180602001828103825283818151815260200191508051906020019080838360005b8381101561045957808201518184015260208101905061043e565b50505050905090810190601f1680156104865780820380516001836020036101000a031916815260200191505b50935050505060405180910390f35b3480156104a157600080fd5b506104aa610b13565b6040518082815260200191505060405180910390f35b3480156104cc57600080fd5b506104d5610b19565b6040518082815260200191505060405180910390f35b3480156104f757600080fd5b506105b16004803603602081101561050e57600080fd5b810190808035906020019064010000000081111561052b57600080fd5b82018360208201111561053d57600080fd5b8035906020019184600183028401116401000000008311171561055f57600080fd5b91908080601f016020809104026020016040519081016040528093929190818152602001838380828437600081840152601f19601f820116905080830192505050505050509192919290505050610b23565b005b3480156105bf57600080fd5b506105c8611074565b6040518082815260200191505060405180910390f35b6106a1600480360360408110156105f457600080fd5b81019080803590602001909291908035906020019064010000000081111561061b57600080fd5b82018360208201111561062d57600080fd5b8035906020019184600183028401116401000000008311171561064f57600080fd5b91908080601f016020809104026020016040519081016040528093929190818152602001838380828437600081840152601f19601f82011690508083019250505050505050919291929050505061107a565b005b3480156106af57600080fd5b506106b8611495565b6040518082815260200191505060405180910390f35b3480156106da57600080fd5b506106e361149b565b6040518080602001828103825283818151815260200191508051906020019080838360005b83811015610723578082015181840152602081019050610708565b50505050905090810190601f1680156107505780820380516001836020036101000a031916815260200191505b509250505060405180910390f35b34801561076a57600080fd5b5061077361153d565b6040518082815260200191505060405180910390f35b34801561079557600080fd5b506107c2600480360360208110156107ac57600080fd5b8101908080359060200190929190505050611543565b604051808273ffffffffffffffffffffffffffffffffffffffff1673ffffffffffffffffffffffffffffffffffffffff16815260200191505060405180910390f35b34801561081057600080fd5b5061083d6004803603602081101561082757600080fd5b8101908080359060200190929190505050611586565b604051808273ffffffffffffffffffffffffffffffffffffffff1673ffffffffffffffffffffffffffffffffffffffff16815260200191505060405180910390f35b6108876115c4565b73ffffffffffffffffffffffffffffffffffffffff163373ffffffffffffffffffffffffffffffffffffffff161415156108c057600080fd5b80600890805190602001906108d692919061247d565b505050565b61099c6040805190810160405280600381526020017f55524c0000000000000000000000000000000000000000000000000000000000815250608060405190810160405280605981526020017f6a736f6e2868747470733a2f2f7777772e6372696362757a7a2e636f6d2f6d6181526020017f7463682d6170692f6c6976656d6174636865732e6a736f6e292e6d617463686581526020017f732e223232343539222e77696e6e696e675f7465616d5f696400000000000000815250611937565b600981905550565b505050565b600080600090505b600c80549050811015610a42578273ffffffffffffffffffffffffffffffffffffffff16600c828154811015156109e457fe5b9060005260206000200160009054906101000a900473ffffffffffffffffffffffffffffffffffffffff1673ffffffffffffffffffffffffffffffffffffffff161415610a35576001915050610a48565b80806001019150506109b1565b50600090505b919050565b6000600654905090565b600d602052806000526040600020600091509050806000015490806001018054600181600116156101000203166002900480601f016020809104026020016040519081016040528092919081815260200182805460018160011615610100020316600290048015610b095780601f10610ade57610100808354040283529160200191610b09565b820191906000526020600020905b815481529060010190602001808311610aec57829003601f168201915b5050505050905082565b60075481565b6000600754905090565b600080905060008090506000809050600080600080600090505b600c80549050811015610d2f57600c81815481101515610b5957fe5b9060005260206000200160009054906101000a900473ffffffffffffffffffffffffffffffffffffffff169150876040516020018082805190602001908083835b602083101515610bbf5780518252602082019150602081019050602083039250610b9a565b6001836020036101000a03801982511681845116808217855250505050505090500191505060405160208183030381529060405280519060200120600d60008473ffffffffffffffffffffffffffffffffffffffff1673ffffffffffffffffffffffffffffffffffffffff1681526020019081526020016000206001016040516020018082805460018160011615610100020316600290048015610c9a5780601f10610c78576101008083540402835291820191610c9a565b820191906000526020600020905b815481529060010190602001808311610c86575b5050915050604051602081830303815290604052805190602001201415610d225781600b8863ffffffff16815481101515610cd157fe5b9060005260206000200160006101000a81548173ffffffffffffffffffffffffffffffffffffffff021916908373ffffffffffffffffffffffffffffffffffffffff16021790555086806001019750505b8080600101915050610b3d565b5060405160200180807f3538000000000000000000000000000000000000000000000000000000000000815250600201905060405160208183030381529060405280519060200120876040516020018082805190602001908083835b602083101515610db05780518252602082019150602081019050602083039250610d8b565b6001836020036101000a038019825116818451168082178552505050505050905001915050604051602081830303815290604052805190602001201415610e005760075494506006549350610ed6565b60405160200180807f3235350000000000000000000000000000000000000000000000000000000000815250600301905060405160208183030381529060405280519060200120876040516020018082805190602001908083835b602083101515610e805780518252602082019150602081019050602083039250610e5b565b6001836020036101000a038019825116818451168082178552505050505050905001915050604051602081830303815290604052805190602001201415610ed05760065494506007549350610ed5565b600080fd5b5b60008090505b8663ffffffff16811015610fe857600073ffffffffffffffffffffffffffffffffffffffff16600b82815481101515610f1157fe5b9060005260206000200160009054906101000a900473ffffffffffffffffffffffffffffffffffffffff1673ffffffffffffffffffffffffffffffffffffffff16141515610f9657600b81815481101515610f6857fe5b9060005260206000200160009054906101000a900473ffffffffffffffffffffffffffffffffffffffff1693505b600d60008573ffffffffffffffffffffffffffffffffffffffff1673ffffffffffffffffffffffffffffffffffffffff1681526020019081526020016000206000015492508080600101915050610edc565b50600d60008273ffffffffffffffffffffffffffffffffffffffff1673ffffffffffffffffffffffffffffffffffffffff16815260200190815260200160002060008082016000905560018201600061104191906124fd565b50506000600c816110529190612545565b5060009450600093506000600681905550600060078190555050505050505050565b60065481565b611083336109a9565b15151561108f57600080fd5b60055482101515156110a057600080fd5b81600d60003373ffffffffffffffffffffffffffffffffffffffff1673ffffffffffffffffffffffffffffffffffffffff1681526020019081526020016000206000018190555080600d60003373ffffffffffffffffffffffffffffffffffffffff1673ffffffffffffffffffffffffffffffffffffffff168152602001908152602001600020600101908051906020019061113d92919061247d565b50600c3390806001815401808255809150509060018203906000526020600020016000909192909190916101000a81548173ffffffffffffffffffffffffffffffffffffffff021916908373ffffffffffffffffffffffffffffffffffffffff160217905550507f197c81194b42201e05f4b2f587787f9156fcc85a50cc19a2fd8ae9cf9fb1ddfd3334604051808373ffffffffffffffffffffffffffffffffffffffff1673ffffffffffffffffffffffffffffffffffffffff1681526020018281526020019250505060405180910390a17fe1f0796e4e175cbbbdd40bfcb09b35c11c4914b118238869ff6a2e05877caf0e3382604051808373ffffffffffffffffffffffffffffffffffffffff1673ffffffffffffffffffffffffffffffffffffffff16815260200180602001828103825283818151815260200191508051906020019080838360005b838110156112a4578082015181840152602081019050611289565b50505050905090810190601f1680156112d15780820380516001836020036101000a031916815260200191505b50935050505060405180910390a160405160200180807f3538000000000000000000000000000000000000000000000000000000000000815250600201905060405160208183030381529060405280519060200120816040516020018082805190602001908083835b60208310151561135f578051825260208201915060208101905060208303925061133a565b6001836020036101000a0380198251168184511680821785525050505050509050019150506040516020818303038152906040528051906020012014156113b55781600660008282540192505081905550611491565b60405160200180807f3235350000000000000000000000000000000000000000000000000000000000815250600301905060405160208183030381529060405280519060200120816040516020018082805190602001908083835b6020831015156114355780518252602082019150602081019050602083039250611410565b6001836020036101000a03801982511681845116808217855250505050505090500191505060405160208183030381529060405280519060200120141561148b5781600760008282540192505081905550611490565b600080fd5b5b5050565b60055481565b606060088054600181600116156101000203166002900480601f0160208091040260200160405190810160405280929190818152602001828054600181600116156101000203166002900480156115335780601f1061150857610100808354040283529160200191611533565b820191906000526020600020905b81548152906001019060200180831161151657829003601f168201915b5050505050905090565b60095481565b6000600b8281548110151561155457fe5b9060005260206000200160009054906101000a900473ffffffffffffffffffffffffffffffffffffffff169050919050565b600c8181548110151561159557fe5b906000526020600020016000915054906101000a900473ffffffffffffffffffffffffffffffffffffffff1681565b60008073ffffffffffffffffffffffffffffffffffffffff16600160009054906101000a900473ffffffffffffffffffffffffffffffffffffffff1673ffffffffffffffffffffffffffffffffffffffff16148061164c5750600061164a600160009054906101000a900473ffffffffffffffffffffffffffffffffffffffff16611ef0565b145b1561165d5761165b6000611efb565b505b600160009054906101000a900473ffffffffffffffffffffffffffffffffffffffff1673ffffffffffffffffffffffffffffffffffffffff166338cc48316040518163ffffffff167c0100000000000000000000000000000000000000000000000000000000028152600401602060405180830381600087803b1580156116e357600080fd5b505af11580156116f7573d6000803e3d6000fd5b505050506040513d602081101561170d57600080fd5b810190808051906020019092919050505073ffffffffffffffffffffffffffffffffffffffff166000809054906101000a900473ffffffffffffffffffffffffffffffffffffffff1673ffffffffffffffffffffffffffffffffffffffff1614151561187457600160009054906101000a900473ffffffffffffffffffffffffffffffffffffffff1673ffffffffffffffffffffffffffffffffffffffff166338cc48316040518163ffffffff167c0100000000000000000000000000000000000000000000000000000000028152600401602060405180830381600087803b1580156117f957600080fd5b505af115801561180d573d6000803e3d6000fd5b505050506040513d602081101561182357600080fd5b81019080805190602001909291905050506000806101000a81548173ffffffffffffffffffffffffffffffffffffffff021916908373ffffffffffffffffffffffffffffffffffffffff1602179055505b6000809054906101000a900473ffffffffffffffffffffffffffffffffffffffff1673ffffffffffffffffffffffffffffffffffffffff1663c281d19e6040518163ffffffff167c010000000000000000000000000000000000000000000000000000000002815260040160206040518083038186803b1580156118f757600080fd5b505afa15801561190b573d6000803e3d6000fd5b505050506040513d602081101561192157600080fd5b8101908080519060200190929190505050905090565b60008073ffffffffffffffffffffffffffffffffffffffff16600160009054906101000a900473ffffffffffffffffffffffffffffffffffffffff1673ffffffffffffffffffffffffffffffffffffffff1614806119bf575060006119bd600160009054906101000a900473ffffffffffffffffffffffffffffffffffffffff16611ef0565b145b156119d0576119ce6000611efb565b505b600160009054906101000a900473ffffffffffffffffffffffffffffffffffffffff1673ffffffffffffffffffffffffffffffffffffffff166338cc48316040518163ffffffff167c0100000000000000000000000000000000000000000000000000000000028152600401602060405180830381600087803b158015611a5657600080fd5b505af1158015611a6a573d6000803e3d6000fd5b505050506040513d6020811015611a8057600080fd5b810190808051906020019092919050505073ffffffffffffffffffffffffffffffffffffffff166000809054906101000a900473ffffffffffffffffffffffffffffffffffffffff1673ffffffffffffffffffffffffffffffffffffffff16141515611be757600160009054906101000a900473ffffffffffffffffffffffffffffffffffffffff1673ffffffffffffffffffffffffffffffffffffffff166338cc48316040518163ffffffff167c0100000000000000000000000000000000000000000000000000000000028152600401602060405180830381600087803b158015611b6c57600080fd5b505af1158015611b80573d6000803e3d6000fd5b505050506040513d6020811015611b9657600080fd5b81019080805190602001909291905050506000806101000a81548173ffffffffffffffffffffffffffffffffffffffff021916908373ffffffffffffffffffffffffffffffffffffffff1602179055505b60008060009054906101000a900473ffffffffffffffffffffffffffffffffffffffff1673ffffffffffffffffffffffffffffffffffffffff1663524f3889856040518263ffffffff167c01000000000000000000000000000000000000000000000000000000000281526004018080602001828103825283818151815260200191508051906020019080838360005b83811015611c92578082015181840152602081019050611c77565b50505050905090810190601f168015611cbf5780820380516001836020036101000a031916815260200191505b5092505050602060405180830381600087803b158015611cde57600080fd5b505af1158015611cf2573d6000803e3d6000fd5b505050506040513d6020811015611d0857600080fd5b8101908080519060200190929190505050905062030d403a02670de0b6b3a764000001811115611d3f576000600102915050611eea565b6000809054906101000a900473ffffffffffffffffffffffffffffffffffffffff1673ffffffffffffffffffffffffffffffffffffffff1663adf59f9982600087876040518563ffffffff167c0100000000000000000000000000000000000000000000000000000000028152600401808481526020018060200180602001838103835285818151815260200191508051906020019080838360005b83811015611df6578082015181840152602081019050611ddb565b50505050905090810190601f168015611e235780820380516001836020036101000a031916815260200191505b50838103825284818151815260200191508051906020019080838360005b83811015611e5c578082015181840152602081019050611e41565b50505050905090810190601f168015611e895780820380516001836020036101000a031916815260200191505b50955050505050506020604051808303818588803b158015611eaa57600080fd5b505af1158015611ebe573d6000803e3d6000fd5b50505050506040513d6020811015611ed557600080fd5b81019080805190602001909291905050509150505b92915050565b6000813b9050919050565b6000611f05611f0c565b9050919050565b600080611f2c731d3b2638a7cc9f2cb3d298a3da7a90b67e5506ed611ef0565b1115611fce57731d3b2638a7cc9f2cb3d298a3da7a90b67e5506ed600160006101000a81548173ffffffffffffffffffffffffffffffffffffffff021916908373ffffffffffffffffffffffffffffffffffffffff160217905550611fc56040805190810160405280600b81526020017f6574685f6d61696e6e6574000000000000000000000000000000000000000000815250612463565b60019050612460565b6000611fed73c03a2615d5efaf5f49f60b7bb6583eaec212fdf1611ef0565b111561208f5773c03a2615d5efaf5f49f60b7bb6583eaec212fdf1600160006101000a81548173ffffffffffffffffffffffffffffffffffffffff021916908373ffffffffffffffffffffffffffffffffffffffff1602179055506120866040805190810160405280600c81526020017f6574685f726f707374656e330000000000000000000000000000000000000000815250612463565b60019050612460565b60006120ae73b7a07bcf2ba2f2703b24c0691b5278999c59ac7e611ef0565b11156121505773b7a07bcf2ba2f2703b24c0691b5278999c59ac7e600160006101000a81548173ffffffffffffffffffffffffffffffffffffffff021916908373ffffffffffffffffffffffffffffffffffffffff1602179055506121476040805190810160405280600981526020017f6574685f6b6f76616e0000000000000000000000000000000000000000000000815250612463565b60019050612460565b600061216f73146500cfd35b22e4a392fe0adc06de1a1368ed48611ef0565b11156122115773146500cfd35b22e4a392fe0adc06de1a1368ed48600160006101000a81548173ffffffffffffffffffffffffffffffffffffffff021916908373ffffffffffffffffffffffffffffffffffffffff1602179055506122086040805190810160405280600b81526020017f6574685f72696e6b656279000000000000000000000000000000000000000000815250612463565b60019050612460565b600061223073a2998efd205fb9d4b4963afb70778d6354ad3a41611ef0565b11156122d25773a2998efd205fb9d4b4963afb70778d6354ad3a41600160006101000a81548173ffffffffffffffffffffffffffffffffffffffff021916908373ffffffffffffffffffffffffffffffffffffffff1602179055506122c96040805190810160405280600a81526020017f6574685f676f65726c6900000000000000000000000000000000000000000000815250612463565b60019050612460565b60006122f1736f485c8bf6fc43ea212e93bbf8ce046c7f1cb475611ef0565b111561235557736f485c8bf6fc43ea212e93bbf8ce046c7f1cb475600160006101000a81548173ffffffffffffffffffffffffffffffffffffffff021916908373ffffffffffffffffffffffffffffffffffffffff16021790555060019050612460565b60006123747320e12a1f859b3feae5fb2a0a32c18f5a65555bbf611ef0565b11156123d8577320e12a1f859b3feae5fb2a0a32c18f5a65555bbf600160006101000a81548173ffffffffffffffffffffffffffffffffffffffff021916908373ffffffffffffffffffffffffffffffffffffffff16021790555060019050612460565b60006123f77351efaf4c8b3c9afbd5ab9f4bbc82784ab6ef8faa611ef0565b111561245b577351efaf4c8b3c9afbd5ab9f4bbc82784ab6ef8faa600160006101000a81548173ffffffffffffffffffffffffffffffffffffffff021916908373ffffffffffffffffffffffffffffffffffffffff16021790555060019050612460565b600090505b90565b806002908051906020019061247992919061247d565b5050565b828054600181600116156101000203166002900490600052602060002090601f016020900481019282601f106124be57805160ff19168380011785556124ec565b828001600101855582156124ec579182015b828111156124eb5782518255916020019190600101906124d0565b5b5090506124f99190612571565b5090565b50805460018160011615610100020316600290046000825580601f106125235750612542565b601f0160209004906000526020600020908101906125419190612571565b5b50565b81548183558181111561256c5781836000526020600020918201910161256b9190612571565b5b505050565b61259391905b8082111561258f576000816000905550600101612577565b5090565b9056fea165627a7a723058205fa78c860042d4c6ba73f986ba145d9633ae625c01eaa3f7903f9aa50e2039470029",
  "source": "pragma solidity >=0.4.22 <0.6.0;\n\nimport \"./oraclizeAPI.sol\";\n\ncontract Betting is usingOraclize {\n   uint256 public minimumBet;\n   uint256 public totalBetsOne;\n   uint256 public totalBetsTwo;\n   string winner_result;\n   //bool private equal_str;\n   bytes32 public oraclizeID;\n   //uint256 public numberOfBets;\n   //uint256 public maxAmountOfBets = 1000;\n   address owner;\n   address[] winners;\n   address payable[] public players;\n   \n    event betAccpeted(address user, uint amount);\n    event Winner(address winner, uint _pool);\n\tevent rollAccpeted(address better, string team);\n   \n   struct Player {                  //Player structure for placing bet and selection of team\n      uint256 amountBet;\n      string teamSelected;\n   }\n   \n   // Address of the player and => the user info   \n   mapping(address => Player) public playerInfo;\n   \n   constructor() public  {\n       owner = msg.sender;\n      //oraclize_setCustomGasPrice(40000000000);\n      minimumBet = 100000000000000; //units in wei which is equals to 0.000000001 ethers\n   }\n   \n//   function sendNumberAndAmount (string memory _numberInRangeOf0To1) public payable {\n// \t    if (msg.value == amount && participating[msg.sender] == 0) {\n// \t       \tpool += msg.value;\n// \t\t\t\t//an array to hold addresses of betters\n// \t       \taddr.push(msg.sender);\n// \t\t\t\t//an array to hold numbers numbers of betters\n//             bet_team.push(_numberInRangeOf0To1);\n// \t       \tparticipating[msg.sender] += 1;\n// \t        emit betAccpeted(msg.sender, msg.value);\n// \t        emit rollAccpeted(msg.sender, _numberInRangeOf0To1);\n// \t    } else {\n// \t        revert(); //throws if the same person bets against themselves or if they send no ether\n// \t    }\n// \t}\n   \n   //query function calls update to send a request to Oracle network\n    function query() public payable {\n        oraclizeID = oraclize_query(\"URL\", \"json(https://www.cricbuzz.com/match-api/livematches.json).matches.\\\"22459\\\".winning_team_id\");\n    }\n   \n   //callback function is used to get the results from Oracle\n    function __callback(bytes32 _oraclizeID, string memory result) public {\n        require(msg.sender == oraclize_cbAddress());\n        winner_result = result;\n        _oraclizeID;\n    }\n    \n    function getWinnerResult() public view returns(string memory){\n    return(winner_result);    \n    }\n    \n  function checkPlayerExists(address player) public view returns(bool){\n      for(uint256 i = 0; i < players.length; i++){\n         if(players[i] == player) \n            return true;\n      }\n      return false;\n  }\n  function bet(uint256 _amountbet, string memory _teamSelected) public payable {       //payable is a function modifier\n      //The first require is used to check if the player already exist\n      require(!checkPlayerExists(msg.sender));      //require() throws exception if the condition is not met and exit from code; returning unused gas\n      //The second one is used to see if the value sended by the player is \n      //Higher than the minum value\n      require(_amountbet >= minimumBet);     //require() throws exception if the condition is not met and exit from code; returning unused gas\n      //msg.value = _amountbet;\n      //We set the player informations : amount of the bet and selected team\n      playerInfo[msg.sender].amountBet = _amountbet;     //msg.value is the value in wei which is sent in the message\n      playerInfo[msg.sender].teamSelected = _teamSelected;\n      \n      //then we add the address of the player to the players array\n      players.push(msg.sender);\n      \n      emit betAccpeted(msg.sender, msg.value);\n      emit rollAccpeted(msg.sender, _teamSelected);\n      //at the end, we increment the stakes of the team selected with the player bet\n      if (keccak256(abi.encodePacked(_teamSelected)) == keccak256(abi.encodePacked(\"58\"))){\n          totalBetsOne += _amountbet;\n      }\n      else if(keccak256(abi.encodePacked(_teamSelected)) == keccak256(abi.encodePacked(\"255\"))){\n          totalBetsTwo += _amountbet;\n      }\n      else{\n          revert();\n      }\n  }\n   \n//   //oracle api send a sting back, stringsEqual function is used to see if they are the same\n//     function stringsEqual (string memory input) public {\n// \t\t//turning the string to bytes\n// \t\tbytes storage a = bytes(winner_result);\n// \t\tbytes memory b = bytes(input);\n// \t\tuint c = 2;\n// \t\t//checks if lengths are equal\n// \t\tif (a.length != b.length) {\n// \t\t\tequal_str = false;\n// \t\t\tc--;\n// \t    }\n// \t    //checks if values of bytes are equal\n// \t    for(uint i; i < a.length; i++ ) {\n// \t        if (a[i] != b[i]) {\n// \t            equal_str = false;\n// \t            c--;\n// \t        }\n// \t    }\n// \t    //check to see if all conditions are met\n// \t    if (c == 2) {\n// \t        equal_str = true;\n// \t    }\n// \t}\n\n    function getPlayer(uint indx) public view returns(address) {\n        return (winners[indx]);\n    }\n\t\n  function distributePrizes(string memory _winner_result) public {\n      //We have to create a temporary in memory array with fixed size\n      //Let's choose 1000\n      uint32 count = 0; //This is the count for the array of winners\n      uint256 LoserBet = 0; //This will take the value of all losers bet\n      uint256 WinnerBet = 0; //This will take the value of all winners bet\n      address addr;\n      uint256 Bet;\n      address payable playerAddress;\n//We loop through the player array to check who selected the winner team\n      for(uint256 i = 0; i < players.length; i++){\n         playerAddress = players[i];\n//If the player selected the winner team\n         //We add his address to the winners array\n         if(keccak256(abi.encodePacked(playerInfo[playerAddress].teamSelected)) == keccak256(abi.encodePacked(_winner_result))){\n            winners[count] = playerAddress;\n            count++;\n         }\n      }\n//We define which bet sum is the Loser one and which one is the winner\n      if ( keccak256(abi.encodePacked(_winner_result)) == keccak256(abi.encodePacked(\"58\"))){\n         LoserBet = totalBetsTwo;\n         WinnerBet = totalBetsOne;\n      }\n      else if(keccak256(abi.encodePacked(_winner_result)) == keccak256(abi.encodePacked(\"255\"))){\n          LoserBet = totalBetsOne;\n          WinnerBet = totalBetsTwo;\n      }\n      else{\n          revert();\n      }\n//We loop through the array of winners, to give ethers to the winners\n      for(uint256 j = 0; j < count; j++){\n          // Check that the address in this fixed array is not empty\n         if(winners[j] != address(0))\n            addr = winners[j];\n            Bet = playerInfo[addr].amountBet;\n            //Transfer the money to the user\n            //winners[j].transfer(Bet);\n      }\n      \n      delete playerInfo[playerAddress]; // Delete all the players\n      players.length = 0; // Delete all the players array\n      LoserBet = 0; //reinitialize the bets\n      WinnerBet = 0;\n      totalBetsOne = 0;\n      totalBetsTwo = 0;\n    }\n    \n//     //checkingWinner function is called when you want to compare RandomNumber to betting numbers\n// \tfunction checkingWinner () public{\n// \t    bool win = false;\n// \t    uint x = 0;\n// \t\t\t//takes random number generated at wolframAlpha and compares it to the betting number\n// \t    while (win == false) {\n// \t        stringsEqual(playerInfo[msg.sender].teamSelected);\n//             if (equal_str == true) {\n// \t            //winners[j].transfer((Bet*(10000+(LoserBet*10000/WinnerBet)))/10000 );\n// \t            //emit Winner(addr[x], pool);\n// \t            win = true;\n// \t        } else {\n// \t            x++;\n// \t        }\n// \t    }\n// \t}\n\n    function AmountOne() public view returns(uint256){\n      return totalBetsOne;\n    }\n    function AmountTwo() public view returns(uint256){\n      return totalBetsTwo;\n    }\n}",
  "sourcePath": "/home/camper69/WORK/Bet-App/contracts/Betting.sol",
  "compiler": {
    "name": "solc",
    "version": "0.5.0+commit.1d4f565a.Emscripten.clang"
  },
  "schemaVersion": "3.0.3",
  "updatedAt": "2019-04-13T06:37:12.289Z",
  "devdoc": {
    "methods": {}
  },
  "userdoc": {
    "methods": {}
  }
}