{
  "contractName": "Betting",
  "abi": [
    {
      "constant": false,
      "inputs": [
        {
          "name": "_myid",
          "type": "bytes32"
        },
        {
          "name": "_result",
          "type": "string"
        }
      ],
      "name": "__callback",
      "outputs": [],
      "payable": false,
      "stateMutability": "nonpayable",
      "type": "function",
      "signature": "0x27dc297e"
    },
    {
      "constant": false,
      "inputs": [
        {
          "name": "_myid",
          "type": "bytes32"
        },
        {
          "name": "_result",
          "type": "string"
        },
        {
          "name": "_proof",
          "type": "bytes"
        }
      ],
      "name": "__callback",
      "outputs": [],
      "payable": false,
      "stateMutability": "nonpayable",
      "type": "function",
      "signature": "0x38bbfa50"
    },
    {
      "constant": true,
      "inputs": [
        {
          "name": "",
          "type": "address"
        }
      ],
      "name": "playerInfo",
      "outputs": [
        {
          "name": "amountBet",
          "type": "uint256"
        },
        {
          "name": "teamSelected",
          "type": "string"
        }
      ],
      "payable": false,
      "stateMutability": "view",
      "type": "function",
      "signature": "0x4b114691"
    },
    {
      "constant": true,
      "inputs": [],
      "name": "totalBetsTwo",
      "outputs": [
        {
          "name": "",
          "type": "uint256"
        }
      ],
      "payable": false,
      "stateMutability": "view",
      "type": "function",
      "signature": "0x5bf6b19f"
    },
    {
      "constant": true,
      "inputs": [],
      "name": "totalBetsOne",
      "outputs": [
        {
          "name": "",
          "type": "uint256"
        }
      ],
      "payable": false,
      "stateMutability": "view",
      "type": "function",
      "signature": "0x8afadeb5"
    },
    {
      "constant": true,
      "inputs": [],
      "name": "minimumBet",
      "outputs": [
        {
          "name": "",
          "type": "uint256"
        }
      ],
      "payable": false,
      "stateMutability": "view",
      "type": "function",
      "signature": "0xc38a8afd"
    },
    {
      "constant": true,
      "inputs": [],
      "name": "oraclizeID",
      "outputs": [
        {
          "name": "",
          "type": "bytes32"
        }
      ],
      "payable": false,
      "stateMutability": "view",
      "type": "function",
      "signature": "0xd98645c5"
    },
    {
      "constant": true,
      "inputs": [
        {
          "name": "",
          "type": "uint256"
        }
      ],
      "name": "players",
      "outputs": [
        {
          "name": "",
          "type": "address"
        }
      ],
      "payable": false,
      "stateMutability": "view",
      "type": "function",
      "signature": "0xf71d96cb"
    },
    {
      "inputs": [],
      "payable": false,
      "stateMutability": "nonpayable",
      "type": "constructor",
      "signature": "constructor"
    },
    {
      "anonymous": false,
      "inputs": [
        {
          "indexed": false,
          "name": "user",
          "type": "address"
        },
        {
          "indexed": false,
          "name": "amount",
          "type": "uint256"
        }
      ],
      "name": "betAccpeted",
      "type": "event",
      "signature": "0x197c81194b42201e05f4b2f587787f9156fcc85a50cc19a2fd8ae9cf9fb1ddfd"
    },
    {
      "anonymous": false,
      "inputs": [
        {
          "indexed": false,
          "name": "winner",
          "type": "address"
        },
        {
          "indexed": false,
          "name": "_pool",
          "type": "uint256"
        }
      ],
      "name": "Winner",
      "type": "event",
      "signature": "0x9c2270628a9b29d30ae96b6c4c14ed646ee134febdce38a5b77f2bde9cea2e20"
    },
    {
      "anonymous": false,
      "inputs": [
        {
          "indexed": false,
          "name": "better",
          "type": "address"
        },
        {
          "indexed": false,
          "name": "team",
          "type": "string"
        }
      ],
      "name": "rollAccpeted",
      "type": "event",
      "signature": "0xe1f0796e4e175cbbbdd40bfcb09b35c11c4914b118238869ff6a2e05877caf0e"
    },
    {
      "constant": false,
      "inputs": [
        {
          "name": "result",
          "type": "string"
        }
      ],
      "name": "query",
      "outputs": [
        {
          "name": "player_id",
          "type": "bytes32"
        }
      ],
      "payable": true,
      "stateMutability": "payable",
      "type": "function",
      "signature": "0x7c261929"
    },
    {
      "constant": true,
      "inputs": [],
      "name": "getWinnerResult",
      "outputs": [
        {
          "name": "",
          "type": "string"
        }
      ],
      "payable": false,
      "stateMutability": "view",
      "type": "function",
      "signature": "0xc4018ef0"
    },
    {
      "constant": true,
      "inputs": [
        {
          "name": "player",
          "type": "address"
        }
      ],
      "name": "checkPlayerExists",
      "outputs": [
        {
          "name": "",
          "type": "bool"
        }
      ],
      "payable": false,
      "stateMutability": "view",
      "type": "function",
      "signature": "0x4081d916"
    },
    {
      "constant": false,
      "inputs": [
        {
          "name": "_amountbet",
          "type": "uint256"
        },
        {
          "name": "_teamSelected",
          "type": "string"
        }
      ],
      "name": "bet",
      "outputs": [],
      "payable": true,
      "stateMutability": "payable",
      "type": "function",
      "signature": "0x915eb32f"
    },
    {
      "constant": true,
      "inputs": [
        {
          "name": "indx",
          "type": "uint256"
        }
      ],
      "name": "getPlayer",
      "outputs": [
        {
          "name": "",
          "type": "address"
        }
      ],
      "payable": false,
      "stateMutability": "view",
      "type": "function",
      "signature": "0xe55ae4e8"
    },
    {
      "constant": false,
      "inputs": [
        {
          "name": "_winner_result",
          "type": "string"
        }
      ],
      "name": "distributePrizes",
      "outputs": [],
      "payable": false,
      "stateMutability": "nonpayable",
      "type": "function",
      "signature": "0x8423adac"
    },
    {
      "constant": true,
      "inputs": [],
      "name": "AmountOne",
      "outputs": [
        {
          "name": "",
          "type": "uint256"
        }
      ],
      "payable": false,
      "stateMutability": "view",
      "type": "function",
      "signature": "0x4996d51d"
    },
    {
      "constant": true,
      "inputs": [],
      "name": "AmountTwo",
      "outputs": [
        {
          "name": "",
          "type": "uint256"
        }
      ],
      "payable": false,
      "stateMutability": "view",
      "type": "function",
      "signature": "0x65733592"
    }
  ],
  "bytecode": "0x608060405234801561001057600080fd5b5033600c60006101000a81548173ffffffffffffffffffffffffffffffffffffffff021916908373ffffffffffffffffffffffffffffffffffffffff16021790555060006009819055506000600a81905550655af3107a40006005819055506118ac8061007e6000396000f3fe6080604052600436106100e6576000357c0100000000000000000000000000000000000000000000000000000000900463ffffffff16806327dc297e146100eb57806338bbfa50146101bd5780634081d916146103265780634996d51d1461038f5780634b114691146103ba5780635bf6b19f1461048b57806365733592146104b65780637c261929146104e15780638423adac146105b05780638afadeb514610678578063915eb32f146106a3578063c38a8afd14610768578063c4018ef014610793578063d98645c514610823578063e55ae4e81461084e578063f71d96cb146108c9575b600080fd5b3480156100f757600080fd5b506101bb6004803603604081101561010e57600080fd5b81019080803590602001909291908035906020019064010000000081111561013557600080fd5b82018360208201111561014757600080fd5b8035906020019184600183028401116401000000008311171561016957600080fd5b91908080601f016020809104026020016040519081016040528093929190818152602001838380828437600081840152601f19601f820116905080830192505050505050509192919290505050610944565b005b3480156101c957600080fd5b50610324600480360360608110156101e057600080fd5b81019080803590602001909291908035906020019064010000000081111561020757600080fd5b82018360208201111561021957600080fd5b8035906020019184600183028401116401000000008311171561023b57600080fd5b91908080601f016020809104026020016040519081016040528093929190818152602001838380828437600081840152601f19601f8201169050808301925050505050505091929192908035906020019064010000000081111561029e57600080fd5b8201836020820111156102b057600080fd5b803590602001918460018302840111640100000000831117156102d257600080fd5b91908080601f016020809104026020016040519081016040528093929190818152602001838380828437600081840152601f19601f820116905080830192505050505050509192919290505050610987565b005b34801561033257600080fd5b506103756004803603602081101561034957600080fd5b81019080803573ffffffffffffffffffffffffffffffffffffffff16906020019092919050505061098c565b604051808215151515815260200191505060405180910390f35b34801561039b57600080fd5b506103a4610a30565b6040518082815260200191505060405180910390f35b3480156103c657600080fd5b50610409600480360360208110156103dd57600080fd5b81019080803573ffffffffffffffffffffffffffffffffffffffff169060200190929190505050610a3a565b6040518083815260200180602001828103825283818151815260200191508051906020019080838360005b8381101561044f578082015181840152602081019050610434565b50505050905090810190601f16801561047c5780820380516001836020036101000a031916815260200191505b50935050505060405180910390f35b34801561049757600080fd5b506104a0610af6565b6040518082815260200191505060405180910390f35b3480156104c257600080fd5b506104cb610afc565b6040518082815260200191505060405180910390f35b61059a600480360360208110156104f757600080fd5b810190808035906020019064010000000081111561051457600080fd5b82018360208201111561052657600080fd5b8035906020019184600183028401116401000000008311171561054857600080fd5b91908080601f016020809104026020016040519081016040528093929190818152602001838380828437600081840152601f19601f820116905080830192505050505050509192919290505050610b06565b6040518082815260200191505060405180910390f35b3480156105bc57600080fd5b50610676600480360360208110156105d357600080fd5b81019080803590602001906401000000008111156105f057600080fd5b82018360208201111561060257600080fd5b8035906020019184600183028401116401000000008311171561062457600080fd5b91908080601f016020809104026020016040519081016040528093929190818152602001838380828437600081840152601f19601f820116905080830192505050505050509192919290505050610cc6565b005b34801561068457600080fd5b5061068d611217565b6040518082815260200191505060405180910390f35b610766600480360360408110156106b957600080fd5b8101908080359060200190929190803590602001906401000000008111156106e057600080fd5b8201836020820111156106f257600080fd5b8035906020019184600183028401116401000000008311171561071457600080fd5b91908080601f016020809104026020016040519081016040528093929190818152602001838380828437600081840152601f19601f82011690508083019250505050505050919291929050505061121d565b005b34801561077457600080fd5b5061077d611638565b6040518082815260200191505060405180910390f35b34801561079f57600080fd5b506107a861163e565b6040518080602001828103825283818151815260200191508051906020019080838360005b838110156107e85780820151818401526020810190506107cd565b50505050905090810190601f1680156108155780820380516001836020036101000a031916815260200191505b509250505060405180910390f35b34801561082f57600080fd5b506108386116e0565b6040518082815260200191505060405180910390f35b34801561085a57600080fd5b506108876004803603602081101561087157600080fd5b81019080803590602001909291905050506116e6565b604051808273ffffffffffffffffffffffffffffffffffffffff1673ffffffffffffffffffffffffffffffffffffffff16815260200191505060405180910390f35b3480156108d557600080fd5b50610902600480360360208110156108ec57600080fd5b8101908080359060200190929190505050611729565b604051808273ffffffffffffffffffffffffffffffffffffffff1673ffffffffffffffffffffffffffffffffffffffff16815260200191505060405180910390f35b610983828260006040519080825280601f01601f19166020018201604052801561097d5781602001600182028038833980820191505090505b50610987565b5050565b505050565b600080600090505b600e80549050811015610a25578273ffffffffffffffffffffffffffffffffffffffff16600e828154811015156109c757fe5b9060005260206000200160009054906101000a900473ffffffffffffffffffffffffffffffffffffffff1673ffffffffffffffffffffffffffffffffffffffff161415610a18576001915050610a2b565b8080600101915050610994565b50600090505b919050565b6000600654905090565b600f602052806000526040600020600091509050806000015490806001018054600181600116156101000203166002900480601f016020809104026020016040519081016040528092919081815260200182805460018160011615610100020316600290048015610aec5780601f10610ac157610100808354040283529160200191610aec565b820191906000526020600020905b815481529060010190602001808311610acf57829003601f168201915b5050505050905082565b60075481565b6000600754905090565b600060405160200180807f3100000000000000000000000000000000000000000000000000000000000000815250600101905060405160208183030381529060405280519060200120826040516020018082805190602001908083835b602083101515610b885780518252602082019150602081019050602083039250610b63565b6001836020036101000a038019825116818451168082178552505050505050905001915050604051602081830303815290604052805190602001201415610be057600960008154809291906001019190505550610cbe565b60405160200180807f3200000000000000000000000000000000000000000000000000000000000000815250600101905060405160208183030381529060405280519060200120826040516020018082805190602001908083835b602083101515610c605780518252602082019150602081019050602083039250610c3b565b6001836020036101000a038019825116818451168082178552505050505050905001915050604051602081830303815290604052805190602001201415610cb857600a60008154809291906001019190505550610cbd565b600080fd5b5b809050919050565b600080905060008090506000809050600080600080600090505b600e80549050811015610ed257600e81815481101515610cfc57fe5b9060005260206000200160009054906101000a900473ffffffffffffffffffffffffffffffffffffffff169150876040516020018082805190602001908083835b602083101515610d625780518252602082019150602081019050602083039250610d3d565b6001836020036101000a03801982511681845116808217855250505050505090500191505060405160208183030381529060405280519060200120600f60008473ffffffffffffffffffffffffffffffffffffffff1673ffffffffffffffffffffffffffffffffffffffff1681526020019081526020016000206001016040516020018082805460018160011615610100020316600290048015610e3d5780601f10610e1b576101008083540402835291820191610e3d565b820191906000526020600020905b815481529060010190602001808311610e29575b5050915050604051602081830303815290604052805190602001201415610ec55781600d8863ffffffff16815481101515610e7457fe5b9060005260206000200160006101000a81548173ffffffffffffffffffffffffffffffffffffffff021916908373ffffffffffffffffffffffffffffffffffffffff16021790555086806001019750505b8080600101915050610ce0565b5060405160200180807f3100000000000000000000000000000000000000000000000000000000000000815250600101905060405160208183030381529060405280519060200120876040516020018082805190602001908083835b602083101515610f535780518252602082019150602081019050602083039250610f2e565b6001836020036101000a038019825116818451168082178552505050505050905001915050604051602081830303815290604052805190602001201415610fa35760075494506006549350611079565b60405160200180807f3200000000000000000000000000000000000000000000000000000000000000815250600101905060405160208183030381529060405280519060200120876040516020018082805190602001908083835b6020831015156110235780518252602082019150602081019050602083039250610ffe565b6001836020036101000a0380198251168184511680821785525050505050509050019150506040516020818303038152906040528051906020012014156110735760065494506007549350611078565b600080fd5b5b60008090505b8663ffffffff1681101561118b57600073ffffffffffffffffffffffffffffffffffffffff16600d828154811015156110b457fe5b9060005260206000200160009054906101000a900473ffffffffffffffffffffffffffffffffffffffff1673ffffffffffffffffffffffffffffffffffffffff1614151561113957600d8181548110151561110b57fe5b9060005260206000200160009054906101000a900473ffffffffffffffffffffffffffffffffffffffff1693505b600f60008573ffffffffffffffffffffffffffffffffffffffff1673ffffffffffffffffffffffffffffffffffffffff168152602001908152602001600020600001549250808060010191505061107f565b50600f60008273ffffffffffffffffffffffffffffffffffffffff1673ffffffffffffffffffffffffffffffffffffffff1681526020019081526020016000206000808201600090556001820160006111e49190611767565b50506000600e816111f591906117af565b5060009450600093506000600681905550600060078190555050505050505050565b60065481565b6112263361098c565b15151561123257600080fd5b600554821015151561124357600080fd5b81600f60003373ffffffffffffffffffffffffffffffffffffffff1673ffffffffffffffffffffffffffffffffffffffff1681526020019081526020016000206000018190555080600f60003373ffffffffffffffffffffffffffffffffffffffff1673ffffffffffffffffffffffffffffffffffffffff16815260200190815260200160002060010190805190602001906112e09291906117db565b50600e3390806001815401808255809150509060018203906000526020600020016000909192909190916101000a81548173ffffffffffffffffffffffffffffffffffffffff021916908373ffffffffffffffffffffffffffffffffffffffff160217905550507f197c81194b42201e05f4b2f587787f9156fcc85a50cc19a2fd8ae9cf9fb1ddfd3334604051808373ffffffffffffffffffffffffffffffffffffffff1673ffffffffffffffffffffffffffffffffffffffff1681526020018281526020019250505060405180910390a17fe1f0796e4e175cbbbdd40bfcb09b35c11c4914b118238869ff6a2e05877caf0e3382604051808373ffffffffffffffffffffffffffffffffffffffff1673ffffffffffffffffffffffffffffffffffffffff16815260200180602001828103825283818151815260200191508051906020019080838360005b8381101561144757808201518184015260208101905061142c565b50505050905090810190601f1680156114745780820380516001836020036101000a031916815260200191505b50935050505060405180910390a160405160200180807f3100000000000000000000000000000000000000000000000000000000000000815250600101905060405160208183030381529060405280519060200120816040516020018082805190602001908083835b60208310151561150257805182526020820191506020810190506020830392506114dd565b6001836020036101000a0380198251168184511680821785525050505050509050019150506040516020818303038152906040528051906020012014156115585781600660008282540192505081905550611634565b60405160200180807f3200000000000000000000000000000000000000000000000000000000000000815250600101905060405160208183030381529060405280519060200120816040516020018082805190602001908083835b6020831015156115d857805182526020820191506020810190506020830392506115b3565b6001836020036101000a03801982511681845116808217855250505050505090500191505060405160208183030381529060405280519060200120141561162e5781600760008282540192505081905550611633565b600080fd5b5b5050565b60055481565b606060088054600181600116156101000203166002900480601f0160208091040260200160405190810160405280929190818152602001828054600181600116156101000203166002900480156116d65780601f106116ab576101008083540402835291602001916116d6565b820191906000526020600020905b8154815290600101906020018083116116b957829003601f168201915b5050505050905090565b600b5481565b6000600d828154811015156116f757fe5b9060005260206000200160009054906101000a900473ffffffffffffffffffffffffffffffffffffffff169050919050565b600e8181548110151561173857fe5b906000526020600020016000915054906101000a900473ffffffffffffffffffffffffffffffffffffffff1681565b50805460018160011615610100020316600290046000825580601f1061178d57506117ac565b601f0160209004906000526020600020908101906117ab919061185b565b5b50565b8154818355818111156117d6578183600052602060002091820191016117d5919061185b565b5b505050565b828054600181600116156101000203166002900490600052602060002090601f016020900481019282601f1061181c57805160ff191683800117855561184a565b8280016001018555821561184a579182015b8281111561184957825182559160200191906001019061182e565b5b509050611857919061185b565b5090565b61187d91905b80821115611879576000816000905550600101611861565b5090565b9056fea165627a7a723058207d13423aa24e9d6b880a07bb69d6dc090bd79facfe1821895586c5cfefcc48510029",
  "source": "pragma solidity >=0.4.22 <0.6.0;\n\nimport \"./oraclizeAPI.sol\";\n\ncontract Betting is usingOraclize {\n   uint256 public minimumBet;\n   uint256 public totalBetsOne;\n   uint256 public totalBetsTwo;\n   string winner_result;\n   uint count1;\n   uint count2;\n   //bool private equal_str;\n   bytes32 public oraclizeID;\n   //uint256 public numberOfBets;\n   //uint256 public maxAmountOfBets = 1000;\n   address owner;\n   address[] winners;\n   address payable[] public players;\n   \n    event betAccpeted(address user, uint amount);\n    event Winner(address winner, uint _pool);\n\tevent rollAccpeted(address better, string team);\n   \n   struct Player {                  //Player structure for placing bet and selection of team\n      uint256 amountBet;\n      string teamSelected;\n   }\n   \n   // Address of the player and => the user info   \n   mapping(address => Player) public playerInfo;\n   \n   constructor() public  {\n        owner = msg.sender;\n        count1 = 0;\n        count2 = 0;\n      //oraclize_setCustomGasPrice(40000000000);\n        minimumBet = 100000000000000; //units in wei which is equals to 0.000000001 ethers\n   }\n   \n//   function sendNumberAndAmount (string memory _numberInRangeOf0To1) public payable {\n// \t    if (msg.value == amount && participating[msg.sender] == 0) {\n// \t       \tpool += msg.value;\n// \t\t\t\t//an array to hold addresses of betters\n// \t       \taddr.push(msg.sender);\n// \t\t\t\t//an array to hold numbers numbers of betters\n//             bet_team.push(_numberInRangeOf0To1);\n// \t       \tparticipating[msg.sender] += 1;\n// \t        emit betAccpeted(msg.sender, msg.value);\n// \t        emit rollAccpeted(msg.sender, _numberInRangeOf0To1);\n// \t    } else {\n// \t        revert(); //throws if the same person bets against themselves or if they send no ether\n// \t    }\n// \t}\n   \n   //query function calls update to send a request to Oracle network\n    // function query() public payable {\n    //     oraclizeID = oraclize_query(\"URL\", \"json(https://www.cricbuzz.com/match-api/livematches.json).matches.\\\"22459\\\".winning_team_id\");\n    // }\n   function query(string memory result) public payable returns (bytes32 player_id){\n       if(keccak256(abi.encodePacked(result)) == keccak256(abi.encodePacked(\"1\")))\n       {\n           count1++;\n       }\n       else if(keccak256(abi.encodePacked(result)) == keccak256(abi.encodePacked(\"2\"))){\n           count2++;\n       }\n       else{\n           revert();\n       }\n       return player_id;\n   }\n   //callback function is used to get the results from Oracle\n    // function __callback(bytes32 _oraclizeID, string memory result) public {\n    //     require(msg.sender == oraclize_cbAddress());\n    //     winner_result = result;\n    //     _oraclizeID;\n    // }\n    \n    function getWinnerResult() public view returns(string memory){\n    return(winner_result);    \n    }\n    \n  function checkPlayerExists(address player) public view returns(bool){\n      for(uint256 i = 0; i < players.length; i++){\n         if(players[i] == player) \n            return true;\n      }\n      return false;\n  }\n  function bet(uint256 _amountbet, string memory _teamSelected) public payable {       //payable is a function modifier\n      //The first require is used to check if the player already exist\n      require(!checkPlayerExists(msg.sender));      //require() throws exception if the condition is not met and exit from code; returning unused gas\n      //The second one is used to see if the value sended by the player is \n      //Higher than the minum value\n      require(_amountbet >= minimumBet);     //require() throws exception if the condition is not met and exit from code; returning unused gas\n      //msg.value = _amountbet;\n      //We set the player informations : amount of the bet and selected team\n      playerInfo[msg.sender].amountBet = _amountbet;     //msg.value is the value in wei which is sent in the message\n      playerInfo[msg.sender].teamSelected = _teamSelected;\n      \n      //then we add the address of the player to the players array\n      players.push(msg.sender);\n      \n      emit betAccpeted(msg.sender, msg.value);\n      emit rollAccpeted(msg.sender, _teamSelected);\n      //at the end, we increment the stakes of the team selected with the player bet\n      if (keccak256(abi.encodePacked(_teamSelected)) == keccak256(abi.encodePacked(\"1\"))){\n          totalBetsOne += _amountbet;\n      }\n      else if(keccak256(abi.encodePacked(_teamSelected)) == keccak256(abi.encodePacked(\"2\"))){\n          totalBetsTwo += _amountbet;\n      }\n      else{\n          revert();\n      }\n  }\n   \n//   //oracle api send a sting back, stringsEqual function is used to see if they are the same\n//     function stringsEqual (string memory input) public {\n// \t\t//turning the string to bytes\n// \t\tbytes storage a = bytes(winner_result);\n// \t\tbytes memory b = bytes(input);\n// \t\tuint c = 2;\n// \t\t//checks if lengths are equal\n// \t\tif (a.length != b.length) {\n// \t\t\tequal_str = false;\n// \t\t\tc--;\n// \t    }\n// \t    //checks if values of bytes are equal\n// \t    for(uint i; i < a.length; i++ ) {\n// \t        if (a[i] != b[i]) {\n// \t            equal_str = false;\n// \t            c--;\n// \t        }\n// \t    }\n// \t    //check to see if all conditions are met\n// \t    if (c == 2) {\n// \t        equal_str = true;\n// \t    }\n// \t}\n\n    function getPlayer(uint indx) public view returns(address) {\n        return (winners[indx]);\n    }\n\t\n  function distributePrizes(string memory _winner_result) public {\n      //We have to create a temporary in memory array with fixed size\n      //Let's choose 1000\n      uint32 count = 0; //This is the count for the array of winners\n      uint256 LoserBet = 0; //This will take the value of all losers bet\n      uint256 WinnerBet = 0; //This will take the value of all winners bet\n      address addr;\n      uint256 Bet;\n      address payable playerAddress;\n//We loop through the player array to check who selected the winner team\n      for(uint256 i = 0; i < players.length; i++){\n         playerAddress = players[i];\n//If the player selected the winner team\n         //We add his address to the winners array\n         if(keccak256(abi.encodePacked(playerInfo[playerAddress].teamSelected)) == keccak256(abi.encodePacked(_winner_result))){\n            winners[count] = playerAddress;\n            count++;\n         }\n      }\n//We define which bet sum is the Loser one and which one is the winner\n      if ( keccak256(abi.encodePacked(_winner_result)) == keccak256(abi.encodePacked(\"1\"))){\n         LoserBet = totalBetsTwo;\n         WinnerBet = totalBetsOne;\n      }\n      else if(keccak256(abi.encodePacked(_winner_result)) == keccak256(abi.encodePacked(\"2\"))){\n          LoserBet = totalBetsOne;\n          WinnerBet = totalBetsTwo;\n      }\n      else{\n          revert();\n      }\n//We loop through the array of winners, to give ethers to the winners\n      for(uint256 j = 0; j < count; j++){\n          // Check that the address in this fixed array is not empty\n         if(winners[j] != address(0))\n            addr = winners[j];\n            Bet = playerInfo[addr].amountBet;\n            //Transfer the money to the user\n            //winners[j].transfer(Bet);\n      }\n      \n      delete playerInfo[playerAddress]; // Delete all the players\n      players.length = 0; // Delete all the players array\n      LoserBet = 0; //reinitialize the bets\n      WinnerBet = 0;\n      totalBetsOne = 0;\n      totalBetsTwo = 0;\n    }\n    \n//     //checkingWinner function is called when you want to compare RandomNumber to betting numbers\n// \tfunction checkingWinner () public{\n// \t    bool win = false;\n// \t    uint x = 0;\n// \t\t\t//takes random number generated at wolframAlpha and compares it to the betting number\n// \t    while (win == false) {\n// \t        stringsEqual(playerInfo[msg.sender].teamSelected);\n//             if (equal_str == true) {\n// \t            //winners[j].transfer((Bet*(10000+(LoserBet*10000/WinnerBet)))/10000 );\n// \t            //emit Winner(addr[x], pool);\n// \t            win = true;\n// \t        } else {\n// \t            x++;\n// \t        }\n// \t    }\n// \t}\n\n    function AmountOne() public view returns(uint256){\n      return totalBetsOne;\n    }\n    function AmountTwo() public view returns(uint256){\n      return totalBetsTwo;\n    }\n}",
  "sourcePath": "/home/camper69/WORK/Bet-App/contracts/Betting.sol",
  "compiler": {
    "name": "solc",
    "version": "0.5.0+commit.1d4f565a.Emscripten.clang"
  },
  "schemaVersion": "3.0.3",
  "updatedAt": "2019-04-15T17:40:17.083Z",
  "devdoc": {
    "methods": {}
  },
  "userdoc": {
    "methods": {}
  }
}